:020000040800F2
:10000000D0070020D12A0008AD080008AF0800087A
:10001000B3080008B7080008BB080008000000008B
:10002000000000000000000000000000BF08000801
:10003000C108000800000000C3080008C508000847
:10004000EB2A0008EB2A0008EB2A0008EB2A00083C
:10005000EB2A0008EB2A0008EB2A0008EB2A00082C
:10006000EB2A0008EB2A0008EB2A0008EB2A00081C
:10007000EB2A0008EB2A0008EB2A0008EB2A00080C
:10008000EB2A0008EB2A0008EB2A0008EB2A0008FC
:10009000EB2A0008EB2A0008EB2A0008EB2A0008EC
:1000A000EB2A0008EB2A0008EB2A0008EB2A0008DC
:1000B000D9010008EB2A0008EB2A0008EB2A000807
:1000C000EB2A0008EB2A0008EB2A0008EB2A0008BC
:1000D000EB2A0008452A0008EB2A0008EB2A000852
:1000E000EB2A0008EB2A0008EB2A0008EB2A00089C
:1000F000EB2A0008EB2A0008EB2A0008EB2A00088C
:10010000EB2A0008EB2A0008EB2A0008EB2A00087B
:10011000EB2A0008EB2A0008EB2A0008EB2A00086B
:10012000EB2A0008EB2A0008EB2A0008EB2A00085B
:1001300000F002F800F03FF80AA090E8000C8244BA
:100140008344AAF10107DA4501D100F034F8AFF297
:10015000090EBAE80F0013F0010F18BFFB1A43F0A5
:1001600001031847AC610200CC610200103A24BFC1
:1001700078C878C1FAD8520724BF30C830C144BF0C
:1001800004680C607047000000230024002500264E
:10019000103A28BF78C1FBD8520728BF30C148BFEA
:1001A0000B607047692903F0ED85002070471FB58B
:1001B0001FBD10B510BD03F0BFFE1146FFF7F7FFDE
:1001C00000F0F9FA03F0DDFE03B4FFF7F2FF03BC21
:1001D00002F0DAFB00BF704710B54FF08040008A94
:1001E00000F00100002827D0FE4841680020884721
:1001F000FC48007D00F080000028F4D0F948008A17
:10020000F9490988884217DAF648408AF649498848
:100210008842F8DA0120F5490860F248008A64282B
:100220000BDDF048408A282807DDEE48408A402848
:1002300003DA0C20EE490860A3E0EA48008A64284B
:100240000BDDE848408A5C2807DDE648408A7428D0
:1002500003DA0A20E649086093E0E248008A64284D
:100260000BDDE048408AC42807DDDE48408ADC28F0
:1002700003DA0720DE49086083E0DA48008A642850
:100280000CDDD848408AF82808DDD648408AB0F509
:10029000887F03DA0520D649086072E0D148008AD9
:1002A00064280DDDCF48408AB0F5967F08DDCD4843
:1002B000408AB0F5A27F03DA0320CD49086060E0F0
:1002C000C848408A002807DDC648408A342803DA37
:1002D0000D20C749086054E0C248408A342807DD31
:1002E000C048408A682803DA0B20C149086048E00A
:1002F000BC48408A682807DDBA48408A9C2803DA4F
:100300000920BB4908603CE0B648408A9C2807DDCC
:10031000B448408AD02803DA0820B549086030E0A4
:10032000B048408AD02808DDAE48408AB0F5827FC8
:1003300003DA0620AE49086023E0AA48408AB0F5F7
:10034000827F08DDA748408AB0F59C7F03DA04204D
:10035000A749086015E0A348408AB0F59C7F08DDF6
:10036000A048408AB0F5B67F03DA0220A0490860B1
:1003700007E09C48408AB0F5B67F02DD01209C4929
:1003800008609C48006880F040009A49086000209E
:100390004FF08041088210BD2DE9F0410446964897
:1003A0009649086000209649086047E09549944ABC
:1003B000126831F8120004F0ADFC06468F4801685F
:1003C000304604F0BBFC054604F06CFCC0B28E491C
:1003D000086001208D4908608D49087012E08B4843
:1003E000006803F07CFF05468A4A8B4B03F0DEFF72
:1003F000074603F017FF8549086085480078401CD0
:100400008349087082480078A042E8DD7F49096886
:10041000162201FB02F003F062FF074603F0BAFD6B
:10042000054603F0FFFE794908600846006802F0BF
:1004300054FA73480068401C7149086070480068AD
:1004400049F6A961884203DA684800680028ADD0FF
:10045000BDE8F08108B57148C06940F000506F49AF
:10046000C8610846806948F2FC1108436B498861FD
:1004700065481C38006840F4803063491C390860C6
:100480004FF6FF70664908800020664908804FF6E5
:10049000FF7000F02DFD3423EF221946002000F0FC
:1004A000ECFE6823EF221946002000F0E6FE9C23B4
:1004B000EF221946002000F0E0FED023EF2219467B
:1004C000002000F0DAFE4FF48273EF22194600207C
:1004D00000F0D3FE4FF49C73EF221946002000F089
:1004E000CCFE4FF4B673EF221946002000F0C5FE93
:1004F00000204023EF2228210090642000F00EFD10
:1005000000207423EF225C210090642000F006FD9F
:100510000020DC23EF22C4210090642000F0FEFCC8
:1005200000204FF48873EF22F8210090642000F03F
:10053000F5FC00204FF4A273EF224FF49671009067
:10054000642000F0EBFC0AE028480068012806D18E
:1005500000202649086026480068FFF71DFFF3E7E2
:100560001CB54FF6FF7000F0C3FC4FF4B473A0222B
:100570005100502000F0DBFE1F204FF4B473A02286
:1005800051000090502000F0C9FC27488223C82267
:1005900014210090002000F008FD4FF6FF70204964
:1005A00008804FF478401F49088020A010210B4696
:1005B000C822CDE90010A021142000F0CCFD1DA020
:1005C00010210B46C822CDE90010B421142000F000
:1005D000C2FD1DA010210B46C822CDE90010114616
:1005E00014203BE048000020980000201800002064
:1005F0001C0000200C1C0140CDCCCC3D0400002090
:100600000C000020DE1A01081C74004014000020B9
:1006100010000020F6285C8FC2F5F03F0010024069
:100620003E0000203C000020BE4F000820506961C1
:100630006E6F000020526570726573656E7465643C
:10064000204279203A2000002052657A61204B61D7
:1006500072696D7A616465200000000000F07BFD26
:1006600070A010210B46C822CDE90010DC21142017
:1006700000F071FD70A010210B46C822CDE90010DA
:10068000F021142000F067FD6FA010210B46C82256
:10069000CDE900104FF48271142000F05CFD1F20A2
:1006A0006E4908804FF6E0706D4908806DA01021FA
:1006B0000B466422CDE900104FF4A571104600F0FE
:1006C0004AFD3CE0002000F027FA684908706848BD
:1006D0004168002088476648007D00F08000F8B13E
:1006E0006348008A63490988884219DA6048408A69
:1006F00060494988884213DA5D48008A50280FDD36
:100700005B48008AA0280BDA5948408AB0F5A07FE0
:1007100006DD5748408AB0F5B47F01DAFFF79AFE4C
:1007200052480078022801D1FFF794FE4F48007824
:10073000012801D1FFF714FF0A2002F0F2F8C1E707
:1007400010B54D48C06940F001004B49C861042014
:100750000107088000208880888440F6C41008853E
:100760004FF4E150888500200882012088811C20F8
:100770000F21002807DA0A07140E404A00F00F0381
:100780001B1FD45403E00A07130E3D4A135400BF45
:100790001C20012181404209920002F1E022C2F8AE
:1007A000001100BF0120810788828007008840F087
:1007B0000100088010BD1CB502F076F802F0DEF8EA
:1007C0004FF4165002F0EFF800F06EF900F011FA55
:1007D0004FF6FF7000F08CFB00F08EF94FF478407C
:1007E0001F49088027A010210B46C822CDE9001020
:1007F000BE213C2000F0AFFC27A010210B46C822F0
:10080000CDE90010D221462000F0A5FC1849086867
:1008100080474FF47A7002F084F8FFF791FFFFF7FA
:100820009FFE00002041726D696E2046726F6F7AE4
:10083000616E666172200000206D616E79207461C6
:100840006E7820746F3A0000204E6567696E20470D
:10085000686F6C616D69706F757220003E000020DA
:100860003C000020426567696E0000002400002003
:1008700048000020980000200010024018ED00E021
:1008800000E400E04D6963726F204C616220507299
:100890006F6A656374000000656C656374726963F8
:1008A000616C205069616E6F00000000704700BFEE
:1008B000FEE700BFFEE700BFFEE700BFFEE77047B0
:1008C00070477047704700000CB500200190009001
:1008D0006C48006840F480306A49086000BF69488D
:1008E000006800F4003000900198401C01900098CE
:1008F00018B90198B0F5A06FF1D16248006800F412
:10090000003010B10120009001E00020009000981C
:10091000012843D15C48006840F010005A49086043
:100920000846006820F0030008600846006840F0B0
:1009300002000860534840685249486008464068D1
:1009400048600846406840F4806048600846406857
:1009500020F47C1048600846406840F4E810486085
:100960000846006840F08070086000BF4548006895
:1009700000F000700028F9D04248406820F00300E1
:10098000404948600846406840F00200486000BFA7
:100990003C48406800F00C000828F9D10CBD10B5A7
:1009A000FFF792FF10BD10B53648006840F0010017
:1009B0003449086008464068344908403149486075
:1009C00008460068324908402E4908600846006819
:1009D00020F4802008600846406820F4FE0048604B
:1009E0004FF41F008860FFF7DAFF4FF000602949DD
:1009F000086010BD10B5002100200022214B5B686B
:100A000003F00C0121B1042906D0082928D107E000
:100A1000214B224C236027E01F4B204C236023E016
:100A2000184B5B6803F47010164B5B6803F480325C
:100A3000022303EB904022B9194B4343174C236028
:100A40000DE0104B5B6803F4003323B1144B4343B8
:100A5000124C236003E0104B4343104C236003E02F
:100A60000D4B0E4C236000BF00BF064B5B68C3F309
:100A700003130C4CE15C094B1B68CB40074C236013
:100A800010BD000000100240002002400000FFF8EE
:100A9000FFFFF6FE08ED00E000127A0028000020BB
:100AA00000093D002C00002008B501214FF4CC7056
:100AB00002F0BEFE4FF40460ADF8000010208DF887
:100AC000030003208DF802006946094802F0F4FB98
:100AD0004FF40061064802F09CFC8020ADF8000055
:100AE00010208DF803006946024802F0E5FB08BDBE
:100AF000001C01400020014008B50121442002F003
:100B000097FE7820ADF8000048208DF80300694674
:100B1000134802F0D1FB08BD70B50546002408213A
:100B20000F4802F05CFC10B944F0010416E01021FB
:100B30000B4802F054FC10B944F002040EE02021EE
:100B4000074802F04CFC10B944F0040406E04021D0
:100B5000034802F044FC08B944F00804204670BD84
:100B60000018014000BF011EA0F10100FBD1704739
:100B700070B5054608E0002402E0FFF72BFB641C7B
:100B800042F210708442F8DB281EA5F10105F2D173
:100B900070BDF74908807047F549891C0880704787
:100BA000F348801C00887047F14A1080921C118025
:100BB0007047EF4A1080921C1180704710B50446B0
:100BC0002046FFF7E6FF052001F087FEFFF7E8FF6C
:100BD00010BDE848C079E64908807047E449891C9F
:100BE0000880704700BF011EA0F10102D0B2FAD107
:100BF000704700B59FB00121080202F00CFE0121F0
:100C000040F2691002F014FE0120ADF878001020C7
:100C10008DF87B0003208DF87A001EA9D64802F0DB
:100C20004BFB4CF23370ADF8780018208DF87B0048
:100C300003208DF87A001EA9D04802F03DFB4FF644
:100C40008070ADF8780018208DF87B0003208DF8B7
:100C50007A001EA9CA4802F02FFB41F20100ADF84C
:100C6000780018208DF87B0003208DF87A001EA9EB
:100C7000C44802F021FB01200890002009900F20B9
:100C80000A9000200B900C900D900E900190029015
:100C90000320039000200490059006900790062002
:100CA0000F900020109011901020129000201390AF
:100CB00015901490169017904FF4805018900020C3
:100CC00019904FF480401A9000201B9008A81C90A7
:100CD00001A81D900FA801F0D5FF0121062002F008
:100CE00039F9322001F01DFE01210020FFF75CFFE1
:100CF000322001F016FE0020FFF760FF9D4988803A
:100D000004211A20FFF755FF0C211B20FFF751FF8C
:100D100000212320FFF74DFF40212420FFF749FF4A
:100D20000F212520FFF745FF06212D20FFF741FF6A
:100D30001420FFF71DFF08211820FFF73AFF0121BB
:100D40001920FFF736FF1420FFF712FF00210120C2
:100D5000FFF72FFF88211F20FFF72BFF06211C2004
:100D6000FFF727FF0A20FFF703FF80211F20FFF76F
:100D700020FF0A20FFF7FCFE90211F20FFF719FF3C
:100D80000520FFF7F5FED0211F20FFF712FF0A20F4
:100D9000FFF7EEFE05211720FFF70BFF0021402093
:100DA000FFF707FF09214120FFF703FF122142202F
:100DB000FFF7FFFE04214320FFF7FBFE0021442044
:100DC000FFF7F7FE23214520FFF7F3FE032146201E
:100DD000FFF7EFFE5E214720FFF7EBFE00214820E2
:100DE000FFF7E7FE00214920FFF7E3FE00214A203C
:100DF000FFF7DFFE00214B20FFF7DBFE00214C2038
:100E0000FFF7D7FE00214D20FFF7D3FE00214E2033
:100E1000FFF7CFFE4F215720FFF7CBFEC82116204A
:100E2000FFF7C7FE38212820FFF7C3FE2820FFF771
:100E30009FFE3C212820FFF7BCFE0A20FFF798FE0A
:100E40001FB000BD10B503460C4619128020FFF7F5
:100E5000B0FED9B28120FFF7ACFE21128220FFF74D
:100E6000A8FEE1B28320FFF7A4FE10BDF0B5044652
:100E70000D4616461F4621120220FFF79AFEE1B2E8
:100E80000320FFF796FE31120420FFF792FEF1B225
:100E90000520FFF78EFE29120620FFF78AFEE9B231
:100EA0000720FFF786FE39120820FFF782FEF9B20D
:100EB0000920FFF77EFE29462046FFF7C3FFF0BD5D
:100EC00000B540F28F13EF2200210846FFF7CEFF56
:100ED00000BD70B505460E46144631462846FFF75C
:100EE000B1FF2220FFF755FE2046FFF755FE70BDEB
:100EF00070B50646FFF7E4FF2220FFF74AFE002503
:100F000008E0002403E03046FFF746FE641CF02CA6
:100F1000F9D36D1CB5F5C87FF3D370BD2DE9F0474B
:100F200004460D4616461F46DDF820A03B463246D5
:100F300029462046FFF79AFF2220FFF72AFE4FF0AE
:100F400000090DE04FF0000804E05046FFF724FED2
:100F500008F10108301B401C4045F6D809F1010991
:100F6000781B401C4845EDD8FFF7AAFFBDE8F08785
:100F7000FE07006C98000020000C014000140140A6
:100F80000018014000200140F84908807047F849E6
:100F90000880704710B50246012000E050430B1E48
:100FA000A1F10104E1B2F9D110BD2DE9F0470446E9
:100FB0000D4616461F46DDF8208005EB070CACF108
:100FC000010C1FFA8CF304EB060CACF1010C1FFAB8
:100FD0008CF2A9B2A0B2FFF749FF2220FFF7D9FD9A
:100FE0004FF0000A0CE04FF0000905E038F8020B62
:100FF000FFF7D2FD09F10109B145F7D30AF1010A62
:10100000BA45F0D3FFF75CFFBDE8F0872DE9F84F54
:1010100005460F4690461E460097D648B0F8009009
:10102000A8F1200000F0FF080A9800284AD1002407
:1010300045E00C2E07D108EB4800CF4901EB8000BA
:1010400010F804A004E0CD4800EB081010F804A04C
:101050004FF0000B2DE00AF0800028B14A463946D7
:101060002846FFF736FF05E0C5480288394628467E
:10107000FFF72FFF4FEA4A604FEA106A781C87B2E9
:10108000F02D04DBBB48A0F80090BDE8F88F009875
:10109000381AB04209D1009F681C85B2F02D03DBDD
:1010A000B448A0F80090F0E706E00BF1010000F072
:1010B000FF0BBBF1080FCEDB00BF601CC4B2B44213
:1010C000B7DB43E000243FE00C2E07D108EB4800DB
:1010D000A94901EB800010F804A004E0A74800EB48
:1010E000081010F804A04FF0000B27E00AF0800071
:1010F00028B1A048028839462846FFF7EAFE4FEAA1
:101100004A604FEA106A781C87B2B5F5C87F03DBE6
:101110009848A0F80090B8E70098381AB04209D172
:10112000009F681C85B2F02D03DB9248A0F8009068
:10113000ABE706E00BF1010000F0FF0BBBF1080F7D
:10114000D4DB00BF601CC4B2B442BDDB8948A0F848
:10115000009000BF99E72DE9F84704460D469046F8
:101160009946DDE9096704F0FF0A08EB04001FFA5D
:1011700080F809EB05001FFA80F916E0444502DB10
:101180005446A81985B24D4500DB14E000200090BC
:101190003A78334629462046FFF738FF304606EBBB
:1011A000D07104EB61018CB27F1C38787E2802DCA0
:1011B00038782028E2DA00BFBDE8F8872DE9FF4F34
:1011C00082B0064692461F46DDE90F480020019096
:1011D00000254DE0781B401EC1B20A20FFF7DAFE61
:1011E000BAFBF0F00A21B0FBF1F201FB1209019801
:1011F00050BB781EA84227DDB9F1000F22D108F0BC
:10120000800078B108F00100A34604EBDB714910BF
:1012100001FB0561009088B2234630220399FFF755
:10122000F5FE0EE008F00100A34604EBDB71491067
:1012300001FB0561009088B2234620220399FFF745
:10124000E5FE13E00120019008F00100A34604EB45
:10125000DB71491001FB0561009088B209F1300192
:10126000CAB223460399FFF7D1FE00BF681CC5B27E
:10127000BD42AFDB06B0BDE8F08F2DE9FF4F84B073
:1012800081468A460020039002900698A0EB09054B
:101290000798A0EB0A06CDF80490CDF800A0002D29
:1012A00001DD012705E00DB9002702E04FF0FF370F
:1012B0006D42002E02DD4FF0010806E016B94FF036
:1012C000000802E04FF0FF387642B54201DD2C46BF
:1012D00000E034464FF0000B23E0009A91B2019AEF
:1012E00090B2244A1288FFF7F4FD03982844039033
:1012F0000298304402900398A04205DD0398001B39
:1013000003900198384401900298A04205DD0298AC
:10131000001B02900098404400900BF101001FFA5E
:1013200080FB601C8345D8DD08B0BDE8F08FF0B5C8
:1013300004460D4616461F462B4632462946204691
:10134000FFF79BFF3B46224629462046FFF795FFC5
:101350003B46324639462046FFF78FFF3B46324632
:1013600029463046FFF789FFF0BD0000400000200D
:10137000420000203C00002030580208A45C020813
:101380003E0000202DE9F04306460F46904600241B
:1013900045460320A0EB48094CE07A1B91B2321974
:1013A00090B2264A1288FFF794FD3A1B91B2721947
:1013B00090B2224A1288FFF78CFD3A1991B2721945
:1013C00090B21E4A1288FFF784FD7A1991B2321941
:1013D00090B21A4A1288FFF77CFD7A1991B2321B3B
:1013E00090B2164A1288FFF774FD3A1991B2721B37
:1013F00090B2124A1288FFF76CFD7A1B91B2321B31
:1014000090B20E4A1288FFF764FD3A1B91B2721B2C
:1014100090B20A4A1288FFF75CFD641CB9F1000F14
:1014200003DAA000801D814404E0601B80000A30C4
:1014300081446D1EAC42B0DDBDE8F0833C0000206D
:1014400008B50121082002F0F3F9C020ADF8000032
:1014500010208DF8030003208DF8020069469048A3
:1014600001F02AFFC0218E4801F0D3FF08BD10B55E
:101470008B48006820F07040894908600846006881
:1014800040F0405008600120864908608649C1F854
:101490009801042001F021FA00208249086004200C
:1014A00001F01BFA00208049C1F8980110BD10B569
:1014B0007B48006820F07040794908600846006861
:1014C00040F04050086000207649091F08607649C6
:1014D000C1F89C01042001F000FA01207149091FA4
:1014E00008607149C1F89C01042001F0F6F910BDB3
:1014F00010B500246A48006820F070406849086010
:101500000846006840F00040086001206549086016
:1015100001F0E3F901206449C1F8980101F0DDF917
:1015200007E0601CC4B2FA2C03DDFFF7C0FF012006
:1015300010BD5C48803800680028F2D15949091F65
:10154000086000BFF4E710B500205649091F086085
:101550005348006820F07040514908600846006810
:1015600040F04050086000204F49C1F89C01022023
:1015700001F0B3F901204B49091F0860022001F076
:10158000ACF900204849C1F8980110BD10B5002001
:101590004449091F08604248006820F070404049F3
:1015A00008600846006840F04050086001203E494D
:1015B000C1F89C01022001F090F901203949091F6E
:1015C0000860022001F089F900203749C1F898012C
:1015D00010BD70B504463248006820F070403049B4
:1015E00008600846006840F04050086000202D491F
:1015F000091F086000251DE0E00918B101202949F4
:10160000086002E00020274908606006040E0220FE
:1016100001F063F901202349091F0860022001F04D
:101620005CF900202049C1F89801022001F055F929
:10163000681CC5B2082DDFDB70BD70B505460024FF
:101640001748006820F07040154908600846006897
:1016500040F000400860002617E000201149091FF3
:101660000860022001F039F901200F49C1F8980102
:101670006006040E0B488038006808B1601CC4B2D4
:10168000012001F02AF9701CC6B2082EE5DB15B95D
:10169000FFF77CFF01E0FFF756FF204670BD00001A
:1016A000000C01409C8121420080214210B5FFF7CF
:1016B000C7FE10BD70B504460026FFF7D8FE2546CC
:1016C000E11704EB11610912A02202EB4101C8B23B
:1016D000FFF77FFFFFF70CFFE11704EB1161091221
:1016E000A4EB0121C8B2FFF774FFFFF701FFFFF77A
:1016F000BEFEA120FFF76DFFFFF7FAFE0020FFF707
:101700009CFF0646FFF7D3FE304670BD70B5044619
:101710000E46FFF7ACFE2546E11704EB11610912F6
:10172000A02202EB4101C8B2FFF753FFFFF7E0FE32
:10173000E11704EB11610912A4EB0121C8B2FFF714
:1017400048FFFFF7D5FE3046FFF743FFFFF7D0FE17
:10175000FFF7ADFE0A2001F0E4F870BD2DE9F0417D
:1017600005460E461746002409E0E20026FA02F27A
:10177000D1B22A1990B2FFF7C9FF601CC4B2BC42B3
:10178000F3DBBDE8F0812DE9F04107460C46002669
:10179000002509E036023919491B491E88B2FFF7B6
:1017A00089FF0644681CC5B2A542F3DB3046BDE89C
:1017B000F08110B5FF20FFF77DFF0446552C01D1C5
:1017C000002010BD5521FF20FFF7A0FFFF20FFF7ED
:1017D00071FF0446552C01D10020F2E70120F0E70B
:1017E00070B506460C46154608E03046721C96B2A7
:1017F000FFF760FF04F8010B681E85B2002DF4D1DD
:1018000070BD70B505460C46164606E021782846A0
:10181000FFF77CFF681C85B2641C301EA6F1010135
:101820008EB2F3D170BD0000002100BF14E000F0C3
:1018300080021AB10122FE4B1A6002E00022FC4B2A
:101840001A604206100E0022FA4B1A600122FA4B6F
:10185000C3F884214A1CD1B20829E8DB704770B56F
:101860000646002500240020F2490860F349C1F82B
:10187000A401F34908603046FFF7D6FF062001F0C7
:101880002CF80020EC49C1F88401012001F025F872
:101890000120E84908600020E749C1F8840100BF41
:1018A00012E04FF6FF7000EA44040020E1490860AE
:1018B0000120E149C1F88401DD488438006808B19D
:1018C000601C84B2681CC5B2102DEADB2411012013
:1018D000DB490860204670BD2DE9FE4380460027A5
:1018E000002406E04046FFF7BAFF2DF81400601C04
:1018F00084B2052CF6DB002416E0601C85B20FE0F4
:101900003DF814003DF81510884207DD3DF81460DD
:101910003DF815002DF814002DF81560681C85B2EF
:10192000052DEDDB601C84B2042CE6DB00270124CE
:1019300005E03DF81400384487B2601C84B2042CE2
:10194000F7DB032097FBF0F086B23046BDE8FE835C
:101950002DE9F04104460D46BA480078FFF7BCFF78
:101960000646B9480078FFF7B7FF074626802F8064
:101970000120BDE8F0817FB504460D4602A903A809
:10198000FFF7E6FF064616B9002004B070BD6946B1
:1019900001A8FFF7DDFF06460EB90020F5E7BDF808
:1019A0000400BDF80C10884206DCBDF80C10BDF830
:1019B0000400283081420CDBBDF80C00BDF8041097
:1019C000884236DCBDF80410BDF80C002830814296
:1019D0002FDABDF80000BDF80810884206DCBDF81B
:1019E0000810BDF80000283081420CDBBDF808006B
:1019F000BDF8001088421CDCBDF80010BDF80800DE
:101A00002830814215DABDF80C10BDF80420881882
:101A100000EBD071C1F34F012180BDF80810BDF873
:101A20000020881800EBD071C1F34F0129800120FC
:101A3000ABE70020A9E770B504460D46164683487B
:101A4000068004F10D018AB2193988B22B46294665
:101A5000FFF713FC05F10D0083B2193881B222465D
:101A60002046FFF70AFC6A1C91B2621C90B2774ACA
:101A70001288FFF72EFA6A1C91B2621E90B2734A66
:101A80001288FFF726FA6A1E91B2621C90B26F4A62
:101A90001288FFF71EFA6A1E91B2621E90B26B4A5C
:101AA0001288FFF716FA062229462046FFF76AFC3D
:101AB00070BD70B504460D4616466448068002881F
:101AC00029462046FFF705FA611C88B25F490A885B
:101AD0002946FFF7FEF9681C81B25C48028820465F
:101AE000FFF7F7F96A1C91B2621C90B2574A12884C
:101AF000FFF7EFF970BD2DE9F04104464C487C3802
:101B00000068002853D124B15149881EFFF733FFE4
:101B10003CE04F49881EFFF72EFFB8B34C491239FD
:101B2000B1F9200003F0DEF8074649491239088A66
:101B300003F0F0F88046464812388169404603F0C9
:101B4000FDF80646394602F06DFF054603F0AAF897
:101B50003F4912390882B1F9220003F0C3F8074661
:101B60003B491239488A03F0D5F880463848123884
:101B7000C169404603F0E2F80646394602F052FFDA
:101B8000054603F08FF8324912394882304812383E
:101B9000007D00F0800010BBC0202D49123908756F
:101BA0000846008A88810846408AC88117E028488C
:101BB0001238007D00F0800040B125481238007DC9
:101BC00020F0800022491239087508E000202049E1
:101BD00012398881C8814FF6FF70088248821C48FC
:101BE0001238007D00F08000BDE8F081F8B518499A
:101BF00012398869174903F0A1F8064603F036F850
:101C00000446042221463220FFF7A8FD104912396C
:101C1000C869104903F092F8064603F027F8054614
:101C2000042229463620FFF799FD0948123813E0AF
:101C3000A4812342848121420080214200802342EA
:101C4000B401224270000020710000203C000020FE
:101C50005A00002020BCBE4CB0F9201002223A20CD
:101C6000FFF77CFDF948B0F9221002223C20FFF773
:101C700075FDF64890F824103E20FFF747FD0A2432
:101C800021463F20FFF742FDF048B0F922000090C6
:101C9000EE48B0F920302A462146EDA002F032F895
:101CA000F8BDF8B53F20FFF705FD04460A2C4ED1DC
:101CB00004213220FFF767FD0446204603F012F8A6
:101CC0000646EC4902F010FFE04988610421362005
:101CD000FFF759FD0546284603F004F80646E54996
:101CE00002F002FFD949C86102213A20FFF74BFDFB
:101CF00000B2D649088402213C20FFF744FD00B21F
:101D0000D24948843E20FFF7D5FCD04981F8240011
:101D1000084690F8240030B19020D7490870D020B0
:101D2000D649087005E0D020D34908709020D349E7
:101D30000870C648B0F922000090C448B0F92030BD
:101D40002A462146CEA001F0DDFF0120F8BDD4A037
:101D500001F0D8FF0020F9E72DE9FC5F04460D46AD
:101D600017461E46DDE90EABDDE90C894FF47840DD
:101D7000D5490880D5A01021CDE90010D44843886A
:101D80000288A0212820FFF7E6F9D2A01021CDE992
:101D90000010CF4843880288A0217820FFF7DBF9A4
:101DA000CDA01021CDE90010C94843880288B42194
:101DB0002820FFF7D0F9C9A01021CDE90010C448B0
:101DC00043880288B4217820FFF7C5F9C4A0102108
:101DD000CDE90010BE4843880288C8212820FFF7BB
:101DE000BAF9C0A01021CDE90010B9484388028893
:101DF000C8217820FFF7AFF9BBA01021CDE9001072
:101E0000B34843880288DC212820FFF7A4F9B7A053
:101E10001021CDE90010AE4843880288DC217820EB
:101E2000FFF799F9B2A01021CDE90010A848438826
:101E30000288F0212820FFF78EF9002010210423CA
:101E40002246CDE90010A0214020FFF7B7F900207D
:101E5000102104232A46CDE90010A0219020FFF78D
:101E6000ADF90020102104233A46CDE90010B42139
:101E70004020FFF7A3F90020102104233246CDE9CA
:101E80000010B4219020FFF799F9002010210423BD
:101E90004246CDE90010C8214020FFF78FF900200D
:101EA000102104234A46CDE90010C8219020FFF7F5
:101EB00085F90020102104235246CDE90010DC21D1
:101EC0004020FFF77BF90020102104235A46CDE97A
:101ED0000010DC219020FFF771F900201021CDE9DE
:101EE00000107B48018803236020109AFFF766F9F1
:101EF000BDE8FC9F00B595B0002010900A901090AE
:101F00001F20714908804FF6FF707B490880FEF75B
:101F1000EFFF4FF478406C4908804FF6FF70FEF7F2
:101F2000E7FF002068490880744800681021642396
:101F3000A022CDE9001028210846FFF70CF94FF444
:101F4000784214210846FFF776FD00203F490875C6
:101F500088614BE23D484068099001200999884713
:101F60003A48007D00F0C00040286DD100200A9062
:101F70003648007D20F04000344908750846018A43
:101F800011AA109822F820103048418A109802EBCC
:101F9000800041801098401CC0B210901098012819
:101FA00006D0022815D0032829D0042810D141E0FA
:101FB0004FF6FF7214210846FFF73DFD44480088A4
:101FC000143880B24FF4784214210990FFF733FDA2
:101FD000CFE33F480088143880B24FF6FF721421D7
:101FE0000990FFF728FD3A484088143880B24FF432
:101FF0007842014609901420FFF71DFDB9E33448EB
:102000004088143880B24FF6FF72014609901420C0
:10201000FFF711FD2E484088143880B209902C48F3
:102020000088143880B24FF4784208900999FFF77D
:1020300002FD9EE3BDF84400BDF84810401A099027
:1020400000285DDB09985DE094E300004800002073
:102050000A5361766520446174612058663D2569A4
:102060002059663D256920583D256920593D25693F
:102070000000000020BCBE4C700000207100002059
:102080000A47657420446174612058663D256920C3
:1020900059663D256920583D256920593D2569002F
:1020A0000A4E6F20454550524F4D20636F6E666952
:1020B0006720666F7220746F7563682063616C6956
:1020C00062726174650A00003C00002078313A00B9
:1020D0009800002079313A0078323A0079323A009B
:1020E00078333A0079333A0078343A0079343A0058
:1020F0006661632069733A003E000020740000208E
:10210000099840420D90BDF8461011A8C088081AE1
:102110000990002801DB099801E0099840420C90E1
:102120000D9840430D900C9840430C90DDE90C1045
:102130000844059002F0EAF8CDE9060101F098FFA5
:10214000CDE9080102F09EF880B20F90BDF84C0076
:10215000BDF85010401A0990002801DB099801E0F1
:10216000099840420D9011A84189C089081A099028
:10217000002801DB099801E0099840420C900D9875
:1021800040430D900C9840430C90DDE90C1008443E
:10219000059002F0BBF8CDE9060101F069FFCDE939
:1021A000080102F06FF880B20E900E9802F0B2FDB6
:1021B00009900F9802F0AEFD0890099902F094FC86
:1021C0000B900B9802F002FC4FF06632FE4BCDE90B
:1021D000080102F0AFF80DD30B9802F0F7FBFB4AB1
:1021E000FB4BCDE9080102F0DFF903D30F9808B1EA
:1021F0000E98E8BB00201090F6484088143880B252
:102200000990F4480088143880B24FF6FF720890A5
:102210000999FFF710FC4FF4784214210846FFF7A4
:102220000AFCED490B9802F089FD089002F03AFD96
:1022300080B211A90990C989BDF8502011AB5B8902
:10224000CDE90132CDE90310BDF84C00009011A892
:10225000C0880890BDF848000790BDF84600069079
:10226000BDF84400059006A90EC9FFF775FD90E280
:10227000FFE7BDF84400BDF84C10401A0990002853
:1022800001DB099801E0099840420D90BDF8461025
:1022900011A84089081A0990002801DB099801E07B
:1022A000099840420C900D9840430D900C98404383
:1022B0000C90DDE90C100844059002F027F8CDE9F8
:1022C000060101F0D5FECDE9080101F0DBFF80B287
:1022D0000F90BDF84800BDF85010401A0990002832
:1022E00001DB099801E0099840420D9011A8C188CE
:1022F000C089081A0990002801DB099801E00998B3
:1023000040420C900D9840430D900C9840430C9027
:10231000DDE90C100844059001F0F8FFCDE9060155
:1023200001F0A6FECDE9080101F0ACFF80B20E90ED
:102330000E9802F0EFFC09900F9802F0EBFC089069
:10234000099902F0D1FB0B900B9802F03FFB4FF084
:1023500066329D4BCDE9080101F0ECFF09D30B98E3
:1023600002F034FB994A9A4BCDE9080102F01CF9BE
:102370003DD20020109097484088143880B20990D0
:1023800094480088143880B24FF6FF72089009997B
:10239000FFF751FB4FF4784214210846FFF74BFB3F
:1023A0008D490B9802F0CAFC089002F07BFC80B2C9
:1023B00011A90990C989BDF8502011AB5B89CDE9FD
:1023C0000132CDE90310BDF84C00009011A8C0887F
:1023D0000890BDF848000790BDF846000690BDF88B
:1023E0004400059006A90EC9FFF7B6FCD1E1BDF87F
:1023F0004800BDF84C10401A0990002801DB0998EC
:1024000001E0099840420D9011A8C1884089081A3E
:102410000990002801DB099801E0099840420C90DE
:102420000D9840430D900C9840430C90DDE90C1042
:102430000844059001F06AFFCDE9060101F018FE9D
:10244000CDE9080101F01EFF80B20F90BDF84400F5
:10245000BDF85010401A0990002801DB099801E0EE
:10246000099840420D90BDF8461011A8C089081A7D
:102470000990002801DB099801E0099840420C907E
:102480000D9840430D900C9840430C90DDE90C10E2
:102490000844059001F03AFFCDE9060101F0E8FD9E
:1024A000CDE9080101F0EEFE80B20E900E9802F028
:1024B00031FC09900F9802F02DFC0890099902F068
:1024C00013FB0B900B9802F081FA4FF066323E4BF3
:1024D000CDE9080101F02EFF09D30B9802F076FA3E
:1024E0003A4A3B4BCDE9080102F05EF83DD20020AC
:1024F000109038484088143880B2099035480088D8
:10250000143880B24FF6FF7208900999FFF793FADA
:102510004FF4784214210846FFF78DFA2E490B98A4
:1025200002F00CFC089002F0BDFB80B211A90990EA
:10253000C989BDF8502011AB5B89CDE90132CDE9E5
:102540000310BDF84C00009011A8C0880890BDF899
:1025500048000790BDF846000690BDF8440005907D
:1025600006A90EC9FFF7F8FB13E1BDF84800BDF856
:102570004410401A079002F0B5FB099015480088F6
:102580002838079002F0AEFB0890099902F0ACFAE7
:1025900012498861BDF84800BDF844100844049011
:1025A00002F0A0FB05900D48806901460490059853
:1025B00002F0C4FB079007480088059002F0AAFBD0
:1025C000069007990CE000006666EE3FCDCCCCCCBF
:1025D000CCCCF03F980000200000C842480000200A
:1025E00002F078FC4FF08041089002F07DFA0990EB
:1025F00002F03CFB00B29949088411A84089BDF85B
:102600004610401A079002F06DFB099094484088EC
:102610002838079002F066FB0890099902F064FAE6
:102620008E49C86111A84089BDF84610084404903D
:1026300002F058FB05908948C0690146049005984E
:1026400002F07CFB079086484088059002F062FB10
:102650000690079902F03EFC4FF08041089002F08E
:1026600043FA099002F002FB00B27C494884084614
:102670008069079002F0FAFA0890002801DB0898B8
:1026800001E00898404202280DDC7448C0690790B8
:1026900002F0ECFA0990002801DB099801E00998A2
:1026A0004042022842DD002010906D4840881438D6
:1026B00080B209906A480088143880B24FF6FF72E1
:1026C00008900999FFF7B7F94FF4784214210846AA
:1026D000FFF7B1F963A01021CDE9001060484088F0
:1026E00009905F480088089002461A212820099B1B
:1026F000FEF731FD594890F8240008B9012000E0A8
:102700000020564981F82400084690F8240030B192
:10271000902059490870D0205849087005E0D02011
:102720005549087090205549087032E01F205449DF
:1027300008804FF6FF70FEF7DBFB52A01021CDE9B9
:102740000010474840880990454800880890024694
:102750006E212320099BFEF7FEFC4FF47A7000F0F7
:10276000E0F8FFF743FA4FF6FF70FEF7C1FB15B034
:1027700000BD00BF0A2000F0D4F80A98401C80B2C7
:102780000A900A98B0F57A7F02DDFFF78AFA02E034
:1027900000BFFFF7DFBB00BF00BFE8E708B50121BE
:1027A000982001F045F80220ADF8000010208DF8C7
:1027B000030003208DF802006946384800F07CFDD4
:1027C0000221364800F025FE4FF40050ADF800001D
:1027D00010208DF8030003208DF802006946304870
:1027E00000F06AFD4FF400512D4800F012FE4FF446
:1027F0000070ADF8000069462A4800F05DFD4FF416
:102800000071284800F005FE4FF4A060ADF800000C
:1028100048208DF803006946224800F04DFDF02065
:102820000F4908804FF4C87048800C491231881E47
:10283000FFF78EF8FEF73AFFFFF733FA08B10020F2
:1028400008BD4FF6FF70FEF753FBFFF753FBFFF792
:10285000CDF9FFF726FA0120F2E70000480000203A
:10286000980000205450204E6565642072656164B4
:102870006A75737421000000700000207100002050
:102880003C000020546F7563682053637265656E69
:102890002041646A757374204F4B2100000C014085
:1028A00000100140001C014010B56FF0040000F062
:1028B0007EF92E4800682E49B0FBF1F02D490870D2
:1028C0000846007800EB4001C1EBC0104FF6FF71E5
:1028D00001EAC0002849088010BD0146254A127847
:1028E0004A434FF0E0235A6100229A611A46126966
:1028F00042F001021A6100BF4FF0E022106900F0BF
:1029000001021AB100F48032002AF5D04FF0E02223
:10291000126922F001024FF0E0231A6100229A614D
:1029200070470146144A12884A434FF0E0235A6127
:1029300000229A611A46126942F001021A6100BF30
:102940004FF0E022106900F001021AB100F4803269
:10295000002AF5D04FF0E022126922F001024FF078
:10296000E0231A6100229A617047000028000020CD
:1029700000127A00780000207A00002010B54FF491
:10298000A06000F0C5F810BD014600BF704700BF51
:102990004B4A128802F04002002AF9D0C2B2484BDA
:1029A0001B1D1A80704710B586B00446012144F201
:1029B000040000F03DFF424800F09EFF4FF400701D
:1029C000ADF8140003208DF8160018208DF81700BC
:1029D00005A93C4800F070FC4FF48060ADF814008D
:1029E00004208DF8170005A9364800F065FC252065
:1029F0008DF8000003208DF801008DF80200012001
:102A00008DF80300684600F088F801940020ADF8C6
:102A10000800ADF80A00ADF80C00ADF810000C206D
:102A2000ADF80E0001A9264800F0A9FF012240F2EE
:102A30002551234801F03BF80121214801F02BF8F2
:102A400006B010BD10B540F225511D4801F014F933
:102A500010B31B4801F090F8C4B21B48008800F482
:102A60000040C8B91848008800F4804060B10A2CC2
:102A700003D000201449088020E01348008840F467
:102A800000401149088019E00D2C06D10E4800883D
:102A900040F480400C49088010E00B480088C0F3E7
:102AA0000D000A490C5408480088401C064908805B
:102AB00008460088C72801DD0020088010BD0000FE
:102AC000003801400008014080000020A2000020E2
:102AD0000948804709480047FEE7FEE7FEE7FEE7B2
:102AE000FEE7FEE7FEE7FEE7FEE7FEE704480549EE
:102AF000054A064B70470000A7090008310100088D
:102B0000D0010020D0070020D0030020D0030020F7
:102B100031490143314A1160704770B500210023EB
:102B20000F22C47804B32D4C246804F4E064C4F587
:102B3000E064210AC1F10403CA40447804FA03F1B5
:102B40008478144021430901254C0678A155047866
:102B500004F01F050124AC4005786D11AD0005F1AE
:102B6000E025C5F8004109E0047804F01F050124C0
:102B7000AC401C4D0678761145F8264070BD1A4AC7
:102B80000A400243154B1B1F1A60704739B1134AA4
:102B9000121D12680243114B1B1D1A6006E00F4AFA
:102BA000121D126882430D4B1B1D1A6070470428CA
:102BB00008D14FF0E021096941F004014FF0E02213
:102BC000116107E04FF0E021096921F004014FF0A5
:102BD000E0221161704700000000FA050CED00E0F2
:102BE00000E400E080E100E080FFFF1F30B943F225
:102BF000DB028100A1F1C0410A6005E043F2D2028C
:102C00008100A1F1C0410A606FF07042411C89004F
:102C1000A1F1C0410A608100A1F1C041C1F80421C5
:102C2000704710280AD118214FF020421166402128
:102C300051664FF0FC319166D16610E01821F74AD9
:102C4000116040214FF02042C2F884104FF0FC3157
:102C5000F24A083211604FF02042C2F88C107047DF
:102C60001820EE492031086000200906C1F8A400B0
:102C70004FF0FC30E94928310860091D0860091D42
:102C800008607047D0E901121143C268114302691C
:102C900011434269114382691143C2691143026AB7
:102CA0001143426A1143826A1143C26A1143026BA3
:102CB000114302689200A2F1C042116081680829A4
:102CC0000BD101688900A1F1C041096841F04002BF
:102CD00001688900A1F1C0410A60416B0968426B3B
:102CE000526841EA0211426B926841EA0221426B4A
:102CF000928941EA0241426B128A41EA0251426BD7
:102D0000127D41EA0261426B926911430268521CD2
:102D10009200A2F1C0421160C16AB1F5804F1BD18F
:102D2000816B0968826B526841EA0211826B92687A
:102D300041EA0221826B128A41EA0251826B127DC2
:102D400041EA0261826B9269114302689200A2F12A
:102D5000C042C2F8041107E06FF0704201688900B8
:102D6000A1F1C041C1F80421704730B50021002213
:102D70000023446844F0080485682C43C5682C434C
:102D800005692C43456944EA4524856944EA45318F
:102D9000C4692468C5696D6844EA0524C5692D893C
:102DA00044EA0544C5692D7B44EA0562046A246847
:102DB000056A6D6844EA0524056A2D8944EA0544DC
:102DC000056A2D7B44EA05630468102C05D14FF099
:102DD00020442166A266E36608E0904C21604FF033
:102DE0002044C4F888208D4C0C34236030BD016829
:102DF00041F01001426841EA4221826841EA4231D1
:102E0000864A20321160C1680968C268526841EA86
:102E10000221C268128941EA0241C268127B41EA7A
:102E200002617E4A283211600169096802695268AC
:102E300041EA02210269128941EA02410269127BD8
:102E400041EA0261754A2C321160416909684269A0
:102E5000526841EA02214269128941EA024142690B
:102E6000127B41EA02614FF02042C2F8B010704775
:102E7000002101600221416000218160C160016187
:102E800041618161C16101624FF480514162490039
:102E900081620021C16201630F21426B1160426BAC
:102EA0005160FF21426B91600F21426BD160426BF8
:102EB0001161426B51610021426B91610F21826B64
:102EC0001160826B5160FF21826B91600F21826BD8
:102ED000D160826B1161826B51610021826B9161C3
:102EE000704710210160002141608160C160016173
:102EF00041618161FC21C2691160C2695160C2698E
:102F00009160C269D160026A1160026A5160026A0E
:102F10009160026AD1607047002101604160816068
:102F2000FC21C2681160C2685160C2689160C268C9
:102F3000D1600269116002695160026991600269A1
:102F4000D160426911604269516042699160426991
:102F5000D160704751B18200A2F1C042126842F0C4
:102F600001038200A2F1C042136009E08200A2F1D5
:102F7000C04212682A4B1A408300A3F1C0431A6072
:102F8000704799B1102808D14FF02042126E42F0DC
:102F900004024FF020431A661DE0204A126842F0F6
:102FA00004024FF02043C3F8802014E0102809D118
:102FB0004FF02042126E1A4BDB1E1A404FF0204396
:102FC0001A6608E0154A1268154BDB1E1A404FF0CE
:102FD0002043C3F88020704748B110492031096868
:102FE00041F004014FF02042C2F8A01009E00B4963
:102FF000203109680A4AD21E11404FF02042C2F81F
:10300000A0107047B9B110280CD14FF02042126EB9
:1030100042F040024FF020431A661FE0800000A0FB
:10302000FEFF0F00724A126842F040024FF0204348
:10303000C3F8802012E0102808D14FF02042126E11
:103040006C4B1A404FF020431A6607E0684A12683A
:10305000684B1A404FF02043C3F880207047014668
:103060000020102903D14FF02042506F02E0604A47
:1030700014321068704710B5F2B1102807D14FF024
:1030800020435B6E0B434FF02044636632E0B0F5A3
:10309000807F08D1564B1B1D1B680B434FF020440B
:1030A000C4F8843026E0524B24331B680B434FF0A6
:1030B0002044C4F8A4301DE0102807D14FF020436D
:1030C0005B6E8B434FF02044636613E0B0F5807F66
:1030D00008D1474B1B1D1B688B434FF02044C4F89D
:1030E000843007E0424B24331B688B434FF020446D
:1030F000C4F8A43010BD10B5024600200023102AE9
:1031000003D14FF02044636E09E0B2F5807F03D114
:10311000374C241D236802E0354C2434236803EA2D
:1031200001040CB1012000E0002010BD102807D1DF
:103130004FF02042526E8A434FF020435A6613E00C
:10314000B0F5807F08D12A4A121D12688A434FF0D9
:103150002043C3F8842007E0254A243212688A43BA
:103160004FF02043C3F8A420704770B502460020FA
:10317000002300240025102A03D14FF02046736E4F
:1031800009E0B2F5807F03D1194E361D336802E0A5
:10319000174E2436336803EA010403EAD10514B15B
:1031A0000DB1012000E0002070BD102808D14FF0C3
:1031B0002042526E22EAD1024FF020435A6615E0B7
:1031C000B0F5807F09D10A4A121D126822EAD102A5
:1031D0004FF02043C3F8842008E0054A24321268E7
:1031E00022EAD1024FF02043C3F8A4207047000028
:1031F000800000A0BFFF0F0010B50446CC488442F9
:1032000008D10121042000F02DFB0021042000F052
:1032100029FB46E0C748844208D10121082000F07C
:1032200021FB0021082000F01DFB3AE0C248844247
:1032300008D10121102000F015FB0021102000F022
:1032400011FB2EE0BD48844208D10121202000F06E
:1032500009FB0021202000F005FB22E0B848844251
:1032600008D10121402000F0FDFA0021402000F0AB
:10327000F9FA16E0B348844208D10121802000F019
:10328000F1FA0021802000F0EDFA0AE0AE48844215
:1032900007D10121801500F0E5FA0021A01500F00A
:1032A000E1FA10BD10B50121084600F0DBFA00215B
:1032B000012000F0D7FA10BD2DE9F04102460025AB
:1032C0000026002000230024002791F803C00CF002
:1032D0000F0591F803C00CF0100CBCF1000F03D0E7
:1032E00091F802C04CEA050591F800C0BCF1000F4E
:1032F00031D0146800202BE04FF0010C0CFA00F3E1
:10330000B1F800C00CEA03069E4220D183004FF0C2
:103310000F0C0CFA03F7BC4305FA03FC4CEA040457
:1033200091F803C0BCF1280F06D14FF0010C0CFA44
:1033300000FCC2F814C00AE091F803C0BCF1480FC9
:1033400005D14FF0010C0CFA00FCC2F810C0401C73
:103350000828D1D31460B1F800C0BCF1FF0F34DDF0
:10336000546800202EE000F1080C4FF0010808FA24
:103370000CF3B1F800C00CEA03069E4221D1830091
:103380004FF00F0C0CFA03F7BC4305FA03FC4CEAB0
:10339000040491F803C0BCF1280F05D100F1080C1A
:1033A00008FA0CF8C2F8148091F803C0BCF1480F79
:1033B00007D100F1080C4FF0010808FA0CF8C2F828
:1033C0001080401C0828CED35460BDE8F0814FF631
:1033D000FF710180022181700421C1707047024693
:1033E000002093680B400BB1012000E000207047E3
:1033F0000146886880B2704702460020D3680B40BF
:103400000BB1012000E0002070470146C86880B27F
:10341000704701617047416170470AB1016100E086
:1034200041617047C16070474FF480320A43826146
:103430008161826182698269704702460020434B44
:1034400018684FF68073184040EA021008433F4B5B
:10345000186070473E49C8617047F0B50A460023BE
:1034600000240021002500F00046B6F1004F02D1F3
:10347000364EF16901E0354E7168C0F3034583B201
:1034800000F44016B6F5401F08D121F070612F4EB0
:10349000766826F070662D4F7E6012E000F480168C
:1034A000B6F5801F06D1032606FA05F4A14341F0C4
:1034B000706106E0460D360103FA06F6B14341F0AD
:1034C000706122B1460D360103FA06F6314300F071
:1034D0000046B6F1004F02D11C4EF16101E01B4ED7
:1034E0007160F0BD30B500228B071C0F0F2303FA6B
:1034F00004F2164B08338C1053F824309343134CCA
:1035000008348D1044F8253023468C1053F82430AD
:103510008C07240F00FA04F423430C4C08348D105C
:1035200044F8253030BD0A49DC310860704700009E
:1035300000080140000C014000100140001401404F
:1035400000180140001C0140002001400000014023
:1035500000002042DF48006840F00100DD490860BB
:1035600008464068DC490840DA4948600846006877
:10357000DA490840D74908600846006820F48020EE
:1035800008600846406820F4FE0048604FF41F00C1
:1035900088607047CF49096821F48031CD4A1160B5
:1035A0001146096821F480211160B0F5803F03D0F5
:1035B000B0F5802F0ED106E0C649096841F480318C
:1035C000C44A116007E0C349096841F4A021C14A17
:1035D000116000E000BF00BF704710B50146002237
:1035E000002300204A11012A02D1BA4C236806E0C8
:1035F000022A02D1B74C236A01E0B64C636A01F09B
:103600001F02012494401C400CB1012000E0002066
:1036100010BD38B5002000900024002500BF3120E7
:10362000FFF7DBFF05460098401C00900098B0F5BE
:10363000A06F01D0002DF2D03120FFF7CEFF08B1EE
:10364000012400E00024204638BD01460020A14AA4
:10365000106820F0F80040EAC10010607047A049EF
:1036600008607047024600209A4B586820F47C108E
:1036700042EA01031843974B58607047984908661F
:10368000704701460020934A506820F00300084329
:10369000506070478F48406800F00C00704701464A
:1036A00000208C4A506820F0F000084350607047BA
:1036B00001460020874A506820F4E06008435060CB
:1036C000704701460020834A506820F4605040EA69
:1036D000C1005060704729B17E4A527A02437D4B47
:1036E0005A7204E07B4A527A82437A4B5A7270478C
:1036F0007B49D8310860704701460020754A506800
:1037000020F440400843506070470021714A203245
:103710001170704A82F82010012802D004280AD1C2
:1037200004E001216B4A2032117005E00521694A4D
:103730002032117000E000BF00BF70476949086087
:1037400070476449096A0143624A116270476549DA
:1037500044390860704730B500210022002400235E
:103760005C4D6D6805F00C0121B1042905D00829D4
:1037700023D105E05C4D056022E05B4D05601FE054
:10378000544D6D6805F47012524D6D6805F4803427
:10379000022505EB92421CB9544D554305600BE0E0
:1037A0004C4D6D6805F400351DB1504D5543056015
:1037B00002E04D4D5543056002E04B4D056000BFF2
:1037C00000BF444D6D6805F0F0010909484D6B5C80
:1037D0000568DD4045603F4D6D6805F4E061090A0C
:1037E000434D6B5C4568DD4085603A4D6D6805F47E
:1037F0006051C90A3E4D6B5C4568DD40C560354D82
:103800006D6805F44041890B3A4D6B5CC568B5FBAA
:10381000F3F5056130BD29B12E4A526902432D4BA3
:103820005A6104E02B4A526982432A4B5A6170471D
:1038300029B1284A92690243264B9A6104E0254A3D
:1038400092698243234B9A61704729B1214AD26918
:103850000243204BDA6104E01E4AD26982431D4BC9
:10386000DA61704729B11B4AD2680243194BDA600A
:1038700004E0184AD2688243164BDA60704729B1D7
:10388000144A12690243134B1A6104E0114A126987
:103890008243104B1A6170471249403908607047E3
:1038A0000F49C86470470B49C87170470948406A9E
:1038B00040F0807007494862704701460020054A81
:1038C00092680A400AB1012000E0002070470149D7
:1038D00088727047001002400000FFF8FFFFF6FEFC
:1038E000000042428004424200127A0000093D007A
:1038F000820000209200002010B50446FB4884425C
:1039000009D101218803FFF7ADFF00214FF480406A
:10391000FFF7A8FF32E0F648844209D101214804AC
:10392000FFF7ADFF00214FF40030FFF7A8FF25E0BF
:10393000F048844209D101218804FFF7A0FF00214B
:103940004FF48020FFF79BFF18E0EB48844209D139
:103950000121C804FFF793FF00214FF40020FFF777
:103960008EFF0BE0E548844208D101210805FFF7EE
:1039700086FF00214FF48010FFF781FF10BD2DE975
:10398000F04786B005460E460024A24600BFA14679
:103990000027B08900B100BF2F462C8A4CF6FF707B
:1039A0000440F08804432C82AC894EF6F3100440A6
:1039B000B08831890843718908430443AC81AC8ADB
:1039C0004FF6FF400440B0890443AC8201A8FFF7E2
:1039D000C2FEC648874202D1DDF810A001E0DDF842
:1039E0000CA0A88900F4004040B10AEBCA0000EB2B
:1039F0000A1031684900B0FBF1F807E00AEBCA0091
:103A000000EB0A1031688900B0FBF1F86420B8FBC4
:103A1000F0F004012009642101FB1089A88900F459
:103A2000004040B1322000EBC900B0FBF1F000F0E3
:103A30000700044308E0322000EB09106421B0FBCA
:103A4000F1F000F00F0004432C8106B0BDE8F087D0
:103A50004FF41651016000218180C18001810C2149
:103A6000418100218181704710B502460020108AF3
:103A70004FF2FF0318400B884C8823438C88234364
:103A8000CC8823431843108210BD0021018041805F
:103A90008180C180704721B1828942F400528281C5
:103AA00004E082894DF6FF731A4082817047F0B5B9
:103AB0000346002400260025002040F66A17B9427C
:103AC00000D100BF1846C1F3421401F01F060127C0
:103AD00007FA06F5012C01D10C3004E0022C01D1CB
:103AE000103000E014301AB107682F43076002E07D
:103AF0000768AF430760F0BD1AB1838A0B43838226
:103B000002E0838A8B4383827047028A4FF6F07308
:103B10001A400282028A0A430282704782894FF267
:103B2000FF731A40828182890A438281704721B1E2
:103B3000828942F00202828104E082894FF6FD739D
:103B40001A4082817047028A4FF6DF731A40028260
:103B5000028A0A430282704721B1028A42F48042FB
:103B6000028204E0028A4BF6FF731A400282704719
:103B7000C1F308028280704701468888C0F30800BC
:103B80007047818941F0010181817047028BD2B277
:103B90000283028B42EA012202837047028B02F405
:103BA0007F420283028B0A430283704721B1828ADB
:103BB00042F02002828204E0828A4FF6DF731A40CC
:103BC0008282704721B1828A42F01002828204E030
:103BD000828A4FF6EF731A408282704721B1828A3F
:103BE00042F00802828204E0828A4FF6F7731A409C
:103BF0008282704721B1828942F40042828103E0CF
:103C00008289C2F30E028281704721B1828A42F416
:103C10000062828204E0828A4FF2FF731A4082823D
:103C20007047828A4FF6FB731A408282828A0A4367
:103C30008282704721B1828A42F00202828204E0CD
:103C4000828A4FF6FD731A40828270470246002036
:103C5000B1F5007F00D100BF13880B400BB10120EC
:103C600000E00020704701F40072B2F5007F00D13F
:103C700000BFCA430280704770B50246002400238B
:103C80000025002040F66A16B14200D100BFC1F302
:103C9000421501F01F03012606FA03F3012D02D19C
:103CA0009689334006E0022D02D1168A334001E0A6
:103CB000968A33400C12012606FA04F41688344022
:103CC00013B10CB1012000E0002070BD10B500223E
:103CD000002340F66A14A14200D100BF0A12012459
:103CE0009440A3B2DC43048010BD000000380140C2
:103CF0000044004000480040004C0040005000409C
:103D0000704700000FB4044910B503AA029800F0F0
:103D1000DDF810BC5DF814FB7C0000202DE9F041BB
:103D20000E460446002020622046E168884730B3F2
:103D3000252805D0D4E901219047206A401CF2E7EC
:103D4000E168204600278847050018D0A5F141000A
:103D5000192802D820354FF40067324629462046FC
:103D60002760FCF71FFA40B1012804D0F61D26F0A9
:103D700007060836D8E7361DD6E72846DAE7206A70
:103D8000BDE8F0812DE9F041064600241068752950
:103D9000314616A510D0AFF30080002802DA404269
:103DA00013A507E031688A0701D512A502E049078B
:103DB00004D511A5012401E0AFF3008000210A22FF
:103DC00006F1240709E0B0FBF2FCB0FBF2F302FBC2
:103DD0001C00303078541846491C0028F3D1234683
:103DE0002A463046BDE8F04100F017B80000000058
:103DF0002D0000002B0000002000000070477047DD
:103E00007047704710B500F073F8006810BD10B52A
:103E1000044600F06DF8046010BD2DE9F0470D4632
:103E200099469246044600F124080168880604D5A4
:103E3000E06921F01001216000E00120A84201DDCD
:103E4000471B00E00027A1697A1902EB0900081A54
:103E5000A0612078C00602D42046AFF3008000267F
:103E600008E0D4E901211AF806009047206A401CB6
:103E7000761C20624E45F4DB2078C0060AD5204629
:103E8000AFF3008006E0D4E9012130209047206A9A
:103E9000401C2062381EA7F10107F4DC07E0D4E9DA
:103EA000012118F805009047206A401C2062281E56
:103EB000A5F10105F3DC2046AFF300802078000671
:103EC00002D50220BDE8F0870120FBE7074B70B563
:103ED0000D467B4400F015F80446284600F024F80F
:103EE00010B14FF0FF3070BD204670BDB9EAFFFF42
:103EF000004870476C01002001694A1C0261087883
:103F0000704700B58FB0CDE9013100210591054919
:103F10007944CDE9031011466846FFF7FFFE0FB064
:103F200000BD0000E5FFFFFF007B00F08000704750
:103F3000004870476C0100207546FFF7F9FFAE4658
:103F400005006946534620F00700854618B020B5A5
:103F5000FEF7CCFDBDE820404FF000064FF0000713
:103F60004FF000084FF0000B21F00701AC46ACE821
:103F7000C009ACE8C009ACE8C009ACE8C0098D468E
:103F8000704710B50446AFF300802046BDE81040EE
:103F9000FCF71AB92DE9F041C1F30A52A2F2FF363B
:103FA0002F4A304B0D460446142E2FDA002E12DA1B
:103FB00000F084F80022134600F0F6FA4CD2002DEF
:103FC000A4BF0024254647DA25F00040204318BF4F
:103FD000254D41D018E0DFF894C02CFA06F705EA29
:103FE000070C5CEA040C08BFBDE8F08100F066F83D
:103FF0000022134600F0D8FA2ED2002D03DA4FF437
:104000008010F0400544BD43002425E0332EC8BF96
:10401000BDE8F081A6F1140C4FF0FF3727FA0CF73A
:104020003C4208BFBDE8F08100F0F4FA00221346DC
:1040300000F0BAFA10D2002D0DDA142E08BF6D1C54
:1040400009D0C6F13400012101FA00F02044A04259
:1040500038BF6D1C0446BC4329462046BDE8F081AC
:104060009C7500883CE4377E0000F0BFFFFF0F0026
:104070002DE9F04106460F4600F0D8FA041E0D4621
:1040800018BF0120284320F00040C0F17F6000F1FC
:10409000E040C00F0ED0301C18BF0120384320F084
:1040A0000040C0F17F6000F1E040C00F04BF01207C
:1040B000FFF7ADFE20462946BDE8F08110B591EA34
:1040C000030F48BF83F0004300F19E83841A71EB15
:1040D000030C05D2121943EB0C03001B61EB0C011E
:1040E000DFF824E14FEA1154A4EB135C1EEA430FFE
:1040F00018BF9EEA445F73D023EA0E03DCF1200E62
:1041000021EA045143F4801332D322FA0CFE10EB5F
:104110000E0023FA0CFE41EB0E01CCF1200E03FA47
:104120000EFE10EB0E0051F10001B1F5801FCCF135
:10413000200E32D201EB045112FA0EF2BDE810400B
:1041400058BF7047401C38BF5FEA420218BF704733
:10415000002814BF20F0010041F100014FEA4103A3
:1041600013F5001F38BF7047A1F1C04100F016BA27
:10417000012A43EB0302ACF1200CDCF11F0E32BF2D
:104180004FF0000E23FA0CF310EB030041EB045147
:10419000B4EB115FD0D0A1EB045101F580114908B7
:1041A0005FEA300001EB04510ED350F1000038BF3C
:1041B00012FA0EFE08D1BDE81040C9E7401C38BF16
:1041C0005FEA4202CAD1C3E7BDE810404FEA4103AB
:1041D00013F5001F38BF7047A1F1C04100F0DEB9F0
:1041E0009EEA445F08D011EA5E0FBDE8104004BFAC
:1041F00001F0004100207047BDE8104070B500F0AC
:104200007FF900BF64FBBE3E0000E0FF491058BFCD
:10421000C1F140415B1058BFC3F140438B42EFF303
:10422000008070474FEA41034FEA5353A3F5806380
:10423000D3F11E03C8BFD3F1210C0CDD4FF00042B7
:1042400042EAC12242EA505232FA03FC8CEAE17C93
:10425000ACEBE1707047102BC4BF0020704703F532
:10426000787CBCF1FF3F04D06FF0004282EA21006D
:10427000704770B500F044F94992248000207047DF
:10428000F2E700004FEA1153A3F58063D3F11E0358
:10429000A8BFD3F1200C08DB4FF0004242EAC12254
:1042A00052EA505232FA03F0704709420BD4102BF5
:1042B000C4BF0020704703F5787CBCF1FF3F05D0F8
:1042C0004FF0FF3070474FF00000704770B500F0BE
:1042D00017F900BF4992248000207047F0E710F0E2
:1042E000004248BF4042B0FA80F310FA03F10AD00E
:1042F000C3F11D0303F580634FEA415002EB035203
:1043000002EBD12170474FF000007047B0FA80F304
:1043100010FA03F10AD0C3F11D0303F580634FEADD
:1043200041504FEA035202EBD12170474FF0000099
:104330007047000051EA030C17D41CF5801F58BFCA
:10434000BCF5801F00F10680994218BF704708BF76
:104350009042704707D711F5801F58BF13F5801F93
:1043600019D499427047894270471CF5801F08D5BF
:10437000BCF5801FF7D58B4218BF704708BF82423B
:1043800070474FF4001C1CEB410F38BF1CEB430F70
:1043900001D28B42704770B500F0B2F89224490008
:1043A0004FF000514FF08053FFF730BFDFF848C1A6
:1043B00070B51CEA111E1EBF1CEA13159EEA0C0FF5
:1043C00095EA0C0F00F06F8081EA030423EA4C1396
:1043D0004EEAD47E21EA4C1141F4801143F480135B
:1043E000AE44A1FB024CA0FB0365AEF17F7E361903
:1043F00055EB0C05A1FB034C4CF10003A0FB021C88
:1044000016EB0C06654153F10003094218BF46F054
:10441000010613F4007F0BD14FEA03314FEA053058
:10442000340341EA155140EA16506FF003020AE0E6
:104430004FEAC3214FEAC520F40241EA555140EA50
:1044400056506FF0020202EB2E4201EB025585EA54
:10445000CE710AD05FEA440C18BF24F0004450F13A
:10446000000041F1000120EAD47040F2FE7C624578
:1044700000D270BDA84214BF4FF080444FF04044BA
:10448000002E08BF0024BEF1806FA8BFA1F1C0417B
:10449000BDE8704080F282804FF0000001F1C04121
:1044A00001F0004170479EEA0C0F0CEA131518BF8B
:1044B00095EA0C0F06D04FF0000081EA030E0EF0D3
:1044C000004170BD00F01CF88900013E00F007B803
:1044D00000F009B84FEA430C5FEA5C5C08D081EA5F
:1044E000030100F05BB84FEA410C5FEA5C5CF6D177
:1044F0004FF00000014970470000FF070000F87FFF
:104500000EF1020E2EF0030E5EF8046B364205D457
:10451000012A43EB030515F5001F12D8012841EBD2
:10452000010C1CF5001F0CD80ED14FEAD17C15F5FB
:10453000001F0CEB4C0C0CF1020C08BF4CEBD37CB5
:1045400004E04FF0080C01E04FEAD37C0CEB4C0583
:1045500026FA05F606F00706B6F1040C06D20EEBB5
:10456000860CBDE870404CF0010C6047DFE80CF0B1
:10457000090B02024FF000414FF00000A1F50021AD
:1045800070BD19461046012851EB010418BFD4F53F
:10459000001484BF002001F0004170BD0808A0F5A0
:1045A00000114FEA3101704753EA010C17D41CF592
:1045B000801F58BFBCF5801F00F106808B4218BFDA
:1045C000704708BF8242704707D713F5801F58BF56
:1045D00011F5801F19D48B4270479B4270471CF520
:1045E000801F08D5BCF5801FF7D5994218BF7047CA
:1045F00008BF904270474FF4001C1CEB430F38BFBC
:104600001CEB410F01D2994270470FB40CBC03BCA4
:10461000FFF7C1BE91EA030F10B581F000413FF5ED
:1046200055AD83F0004300F0EFB800002DE9F041F4
:1046300001F5801CBCF5001FC0F2C3804FEA115C7D
:1046400021EA0C510CF1FD0C41F480115FEA5C0C85
:104650000CF5C07C01D3400049413DA4890241EAE8
:10466000905187028E0E0A0CA45D04FB04F602FB37
:1046700006F6C6F14046A4FB0662F60D46EA42265F
:1046800006FB06F4A4FB01235242C3F1404338BFAA
:104690005B1EA6FB02420024E6FB0324D20B42EA87
:1046A0004446A6FB0623A1FB02E2A3FB07E4A418F1
:1046B0004FF0000252F10002E3FB01426442C2F1FA
:1046C000404E38BFAEF1010EA6FB04234FF00002AE
:1046D000E6FB0E32A2FB03464FF00004B61954F17C
:1046E0000004E2FB0264A1FB06E6A4FB07E816EB6C
:1046F00008064FF0000858F10008E4FB0168764214
:10470000C8F1405838BFA8F10108A2FB06E4A3FB9A
:1047100008E52D194FF0000454F10004E2FB0854A1
:10472000A1FB05E6A7FB04E818EB06084FF000061E
:1047300056F10006E1FB048618F1200556F100064B
:10474000A809A8F11B08B10908F03F08B8F10A0F41
:1047500040EA86601CD901EB0C51BDE8F08100BF36
:10476000FCF5EEE8E2DDD8D3CFCBC7C3C0BDB9B608
:10477000B4B1AEACA9A7A5A3A19F9D9B9A9896950D
:104780009392908F8D8C8B89888786858483828194
:10479000A0FB006800FB01F208EB4208B8EB872899
:1047A00007D5341858EB0104D5D5401C51F1000150
:1047B000D1E7341A78EB0104CDD4401E71F1000129
:1047C000C9E75FEA4C0C5FEA9C5C0DD105D34FF062
:1047D000000001F00041BDE8F081BDE8F04170B596
:1047E000FFF78EFE6DDBFFBEBDE8F0414FF000002D
:1047F000004970470000F87F10B591EA030F48BFE9
:1048000083F000433FF562AC841A71EB030C07D2CE
:1048100012198CF0004C43EB0C03001B61EB0C01F4
:10482000DFF8A4E14FEA1154A4EB135C1EEA430F36
:1048300018BF9EEA445F00F0B08023EA6E03524244
:1048400021EA0451C3EB6E0338BF5B1EDCF1200E7E
:1048500025D322FA0CFE10EB0E0043FA0CFE41EBBE
:104860000E01CCF1200E03FA0EFE10EB0E0051F1FA
:104870000001CCF1200E29D412FA0EF201EB045102
:10488000BDE8104058BF7047401C1CBFB2F1004F3C
:10489000704700280CBF491C20F00100704712EB44
:1048A000020E43EB030218BF4FF0010E4EEA420224
:1048B000ACF1200CDCF11E0E54D943FA0CFE10EBC7
:1048C0000E0051F1FF31CCF11E0ED5D50EF1010EC7
:1048D00012FA0EFE404141EB010101EB445C5FEA3C
:1048E0005C5C10D910EBDE7001EB045138BFBEF1F7
:1048F000004FBDE8104018BF704700280CBF491C8E
:1049000020F00100704730D24FEAD42C11F500118D
:1049100024F400641BD0B1FA81F20B3AA41AA41E4D
:10492000D2F12003914030FA03F31943904001EB98
:10493000CC71002C01EB0451BDE81040A8BF7047BA
:1049400001F1C0414FF0000001F000417047B0FAA2
:1049500080F310FA03F100D110BDE41A173C4805AA
:10496000C90AE4E701EB045110BD491001EB045101
:10497000BDE810404FEA300002E04FF00001704700
:104980004A0008BF0042F8D0B2F5001F28BF7047A8
:1049900001F000414FF0000070479EEA445F07D0ED
:1049A00011EA5E0FBDE8104004BF002100207047EF
:1049B000BDE8104070B5FFF7A3FD00BF40DFF63E35
:1049C00083F00041104670470000E0FF43004FEACB
:1049D000D30C4FEA3C0C43401FBF40070CF1605121
:1049E00013F0FE4F70471CF0006F03D100200CF055
:1049F000004170470CF0004343EA507010B540EAA4
:104A0000CC0000F01CFA00BF000000924FEA000149
:104A1000FFF7C4BD4FF000414FF00000A1F50021A9
:104A20007047000090EA010F48BF81F0004100F19B
:104A30005882421A3CBF801A89184FEAD0524FF070
:104A40007F4C1CEA410FA2EBD15318BF9CEA026FC6
:104A500000F03B804FF0004C4CEA00204CEA012172
:104A600021FA03FC10EB0C0C1ED202F1FF325FEABC
:104A70001C2040EBC25038BF70471CF07F0F4FEA3C
:104A8000400C18BFBCF17F4F38BF7047C3F1200303
:104A9000994008BF20F00100BCF17F4F38BF70473C
:104AA000A0F1C04000F011BA4FEA3C00000A40EB10
:104AB000C25028BF1CF0FF0F4FEA400CE6D018BFD1
:104AC000BCF17F4F38BF7047EAE79CEA026F05D020
:104AD00010EA5C0F08BF00F00040704710B500F00E
:104AE000AEF900BF64FBBE3E4FF47F0C1CEAD0124F
:104AF0001EBF1CEAD11392EA0C0F93EA0C0F00F0D0
:104B0000858090EA010F48BF42F4807240F4000CA7
:104B100041F400002CF07F4120F07F4000B581423D
:104B2000A2EB03020FF2081CACEB504EC0F10000E8
:104B30009EF800E04FEA4E0E00FB0EFC38BF490025
:104B40004FEA2C1C02F5FA020CFB0EF34FEACE1EC4
:104B50004FEA112C4FEAC1210EEB635E42EB224279
:104B60000EFB0CFC4FEA1C5300FB03114FEA112C07
:104B70004FEA01310EFB0CFC4FEADC4C00FB0C1140
:104B8000C14228BF09184CEB03335DF804EB10EB6E
:104B9000410143EBC250B2F57C0F38BF704729D5B5
:104BA00012F0F00F1CBF00F1C04000F00040704751
:104BB000008182838485868788898B8C8D8E8F91F6
:104BC0009293959697999A9C9D9FA0A2A3A5A7A81A
:104BD000AAACAEB0B2B3B5B7B9BCBEC0C2C5C7C946
:104BE000CCCED1D4D7D9DCDFE2E6E9ECF0F3F7FAAA
:104BF000FE0000004FEA400C0CF1807CBCF17E4FBF
:104C000028BF7047B0F1C04000F05FB990EA010FD3
:104C10000CEAD11348BF42F48072624538BF634545
:104C200007D213F47F0F16D080EA010000F0004095
:104C3000704710B500F003F9097EFC3E00F005B89E
:104C400080EA010000F00040704780EA010000F0B7
:104C5000004000F03AB912F47F0F04BF02487047D9
:104C600080EA010000F031B90000C07F41000B0E66
:104C7000D3F19E0208D950F400034FEA032323FA2C
:104C800002F048BF4042704710B500F0D8F800BFAE
:104C900049922480002070476FF0004282EA200091
:104CA00070470000C10DD1F19E0206DB4FEA0023E0
:104CB00043F0004323FA02F07047004207D54FEA61
:104CC0004001B1F1FE4F02D24FF00000704710B525
:104CD00000F0B5F849922480002070476FEA200068
:104CE0007047000010F0004148BF4042B0FA80F326
:104CF00010FA03F2C3F19D030BD051EAC35101EB4B
:104D00001220530638BF704700F1010008BF20F0A1
:104D100001007047B0FA80F310FA03F2C3F19D036B
:104D20000AD0D90501EB1220530638BF704700F1B5
:104D3000010008BF20F00100704700004FF47F0C15
:104D40001CEAD0121EBF1CEAD11392EA0C0F93EAA0
:104D50000C0F00F0478090EA010F48BF42F48072C8
:104D60004FF0004C4CEA00204CEA012102EB030218
:104D7000A0FB0113A2F50002002918BF43F00103B4
:104D80005B0028BF4FEA330342EB22425FEA132C59
:104D90004CEBC2502EBFBCEB436FB2F57C0F70479B
:104DA0004FEA036CBCF1004F08BF20F00100B2F5E0
:104DB0007C0F38BF70470BD582F0FF0212F5803FA1
:104DC000C8BF704700F1C040D8BF00F00040704736
:104DD00000F5000C5FEA4C0C48BF7047B0F1C040D2
:104DE00000F073B890EA010F0CEAD11348BF42F407
:104DF0008072624538BF634504D280EA010000F04A
:104E00000040704710B500F01AF800BF8900013E5D
:104E100000F007B800F009B85FEA410C5FEA1C6CCB
:104E200008D080EA010000F050B85FEA400C5FEA69
:104E30001C6CF6D14FF00040A0F5800070470EF1D9
:104E4000020E2EF0030E5EF8044B244204D44FEA07
:104E50004102B2F17F4F11D84FEA4003B3F17F4FC7
:104E60000CD80ED14FEAD07CB2F17F4F0CEB4C0C3A
:104E70000CF1020C08BF4CEBD17C04E04FF0080CA5
:104E800001E04FEAD17C0CEB4C0324FA03F404F06C
:104E90000704B4F1040C06D20EEB840CBDE81040FC
:104EA0004CF0010C6047DFE80CF0070802024FF0FD
:104EB0000040A0F5800010BD0846420018BFD2F1A6
:104EC000807288BF00F0004010BDFF2141EAD05041
:104ED000C005704790EA010F48BF81F000413FF5DF
:104EE000A8AD421A04D882F00042A0EB020011449F
:104EF0004FEAD0524FF07F4C1CEA410FA2EBD15346
:104F000018BF9CEA026F4AD04FF0004C4CEA0020D8
:104F10004CEA012121FA03FCB0EB0C0C0FD412F087
:104F2000FE0F36D05FEA4C001DD5001240EBC25098
:104F300038BF70471CF03F0F18BF70470BE0A2F15D
:104F400001025FEA1C2040EBC25038BF70471CF0E2
:104F50007F0F18BF7047C3F12003994014BF401E54
:104F600020F00100704780084FEA122308BF704705
:104F7000B0FA80FCA2EB0C02CCF1280C60FA0CF029
:104F800093EA122F04BF00EBC25070474FEAC37080
:104F90007047130A5FEADC1008BF7047F6E79CEA27
:104FA000026F04D010EA5C0F08BF0020704710B5F4
:104FB000FFF745FF40DFF63E81F000407047FFFFFE
:104FC000FFFFFFFFFFFFFFFFFFFFFFFFFFFFFFFFF1
:104FD000FFFFFFFFFFFFFFFFFFFFFFFFFFFFFFFFE1
:104FE000FFFFFFFFFFFFFFFFFFFFFFFFFFFFFFFFD1
:104FF000FFFFFFFFFFFFFFFFFFFFFFFFFFFFFFFFC1
:10527000FFFFDFFFFFFFFFFFFFFFFFFFFFFFFFFF5E
:10528000FFFFFFFFFFFFFFFFFFFFFFFFFFFFFFFF2E
:10529000DFFFFFFFFFFFFFFFFFFFFFFFFFFFFFFF3E
:1052A000FFFFFFFFFFFFFFFFFFFFFFFFFFFFFFFF0E
:1052B000FFFFFFFFFFFFFFFFFFFFFFFFFFFFFFFFFE
:1052C000FFFFFFFFFFFFFFFFFFFFFFFFFFFFFFFFEE
:1052D000FFFFFFFFFFFFFFFFFFFFFFFFFFFFFFFFDE
:1052E000FFFFFFFFFFFFFFFFFFFFFFFFFFFFFFFFCE
:1052F000FFFFFFFFFFFFFFFFFFFFFFFFFFFFFFFFBE
:10530000FFFFFFFFFFFFFFFFFFFFFFFFFFFFFFFFAD
:10531000FFFFFFFFFFFFFFFFFFFFFFFFFFFFFFFF9D
:10532000FFFFFFFFFFFFFFFFFFFFFFFFFFFFFFFF8D
:10533000FFFFFFFFFFFFFFFFFFFFFFFFFFFFFFFF7D
:10534000FFFFFFFFFFFFFFFFFFFFFFFFFFFFFFFF6D
:10535000FFFFFFFFFFFFFFFFFFFFFFFFFFFFFFFF5D
:10536000FFFFFFFFFFFFFFFFFFFFFFFFFFFFFFFF4D
:10537000FFFFFFFFFFFFFFFFFFFFFFFFFFFFFFFF3D
:10538000FFFFFFFFFFFFFFFFFFFFFFFFFFFFFFFF2D
:10539000FFFFFFFFFFFFFFFFFFFFFFFFFFFFFFFF1D
:1053A000FFFFFFFFFFFFFFFFFFFFFFFFFFFFFFFF0D
:1053B000FFFFFFFFFFFFFFFFFFFFFFFFFFFFFFFFFD
:1053C000FFFFFFFFFFFFFFFFFFFFFFFFFFFFFFFFED
:1053D000FFFFFFFFFFFFFFFFFFFFFFFFFFFFFFFFDD
:1053E000FFFFFFFFFFFFFFFFFFFFFFFFFFFFFFFFCD
:1053F000FFFFFFFFFFFFFFFFFFFFFFFFFFFFFFFFBD
:10540000DFFFFFFFFFFFFFFFFFFFFFFFFFFFFFFFCC
:10541000DFFFFFFFDFFFFFFFFFFFFFFFFFFFFFFFDC
:10542000FFFFDFFFFFFFFFFFFFFFFFFFFFFFFFFFAC
:10543000FFFFFFFFFFFFFFFFFFFFFFFFFFFFFFFF7C
:10544000FFFFFFFFFFFFFFFFFFFFFFFFFFFFFFFF6C
:10545000FFFFFFFFFFFFFFFFFFFFFFFFFFFFFFFF5C
:10546000FFFFFFFFFFFFFFFFFFFFFFFFFFFFFFFF4C
:10547000FFFFFFFFFFFFFFFFFFFFFFFFFFFFFFFF3C
:10548000FFFFFFFFFFFFFFFFFFFFFFFFFFFFFFFF2C
:10549000FFFFFFFFFFFFFFFFFFFFFFFFFFFFFFFF1C
:1054A000FFFFFFFFFFFFFFFFFFFFFFFFFFFFFFFF0C
:1054B000FFFFFFFFFFFFFFFFFFFFFFFFFFFFFFFFFC
:1054C000FFFFFFFFFFFFFFFFFFFFFFFFFFFFFFFFEC
:1054D000FFFFFFFFFFFFFFFFFFFFFFFFFFFFFFFFDC
:1054E000FFFFFFFFFFFFFFFFFFFFFFFFFFFFFFFFCC
:1054F000FFFFFFFFFFFFFFFFFFFFFFFFFFFFFFFFBC
:10550000FFFFFFFFFFFFFFFFFFFFFFFFFFFFFFFFAB
:10551000FFFFFFFFFFFFFFFFFFFFFFFFFFFFFFFF9B
:10552000FFFFFFFFFFFFFFFFFFFFFFFFFFFFFFFF8B
:10553000FFFFFFFFFFFFFFFFFFFFFFFFFFFFFFFF7B
:10554000FFFFFFFFFFFFFFFFFFFFFFFFFFFFFFFF6B
:10555000FFFFFFFFFFFFFFFFFFFFFFFFFFFFFFFF5B
:10556000FFFFFFFFFFFFFFFFFFFFFFFFFFFFFFFF4B
:10557000FFFFFFFFFFFFFFFFFFFFFFFFFFFFFFFF3B
:10558000FFFFFFFFFFFFFFFFFFFFFFFFFFFFFFFF2B
:10559000DFFFFFFFFFFFFFFFFFFFFFFFFFFFFFFF3B
:1055A000DFFFFFFFDFFFFFFFFFFFFFFFFFFFFFFF4B
:1055B000FFFFDFFFFFFFFFFFFFFFFFFFFFFFFFFF1B
:1055C000FFFFFFFFFFFFFFFFFFFFFFFFFFFFFFFFEB
:1055D000FFFFFFFFFFFFFFFFFFFFFFFFFFFFFFFFDB
:1055E000FFFFFFFFFFFFFFFFFFFFFFFFFFFFFFFFCB
:1055F000FFFFFFFFFFFFFFFFFFFFFFFFFFFFFFFFBB
:10560000FFFFFFFFFFFFFFFFFFFFFFFFFFFFFFFFAA
:10561000FFFFFFFFFFFFFFFFFFFFFFFFFFFFFFFF9A
:10562000FFFFFFFFFFFFFFFFFFFFFFFFFFFFFFFF8A
:10563000FFFFFFFFFFFFFFFFFFFFFFFFFFFFFFFF7A
:10564000FFFFFFFFFFFFFFFFFFFFFFFFFFFFFFFF6A
:10565000FFFFFFFFFFFFFFFFFFFFFFFFFFFFFFFF5A
:10566000FFFFFFFFFFFFFFFFFFFFFFFFFFFFFFFF4A
:10567000FFFFFFFFFFFFFFFFFFFFFFFFFFFFFFFF3A
:10568000FFFFFFFFFFFFFFFFFFFFFFFFFFFFFFFF2A
:10569000FFFFFFFFFFFFFFFFFFFFFFFFFFFFFFFF1A
:1056A000FFFFFFFFFFFFFFFFFFFFFFFFFFFFFFFF0A
:1056B000FFFFFFFFFFFFFFFFFFFFFFFFFFFFFFFFFA
:1056C000FFFFFFFFFFFFFFFFFFFFFFFFFFFFFFFFEA
:1056D000FFFFFFFFFFFFFFFFFFFFFFFFFFFFFFFFDA
:1056E000FFFFFFFFFFFFFFFFFFFFFFFFFFFFFFFFCA
:1056F000FFFFFFFFFFFFFFFFFFFFFFFFFFFFFFFFBA
:10570000FFFFFFFFFFFFFFFFFFFFFFFFFFFFFFFFA9
:10571000FFFFFFFFFFFFFFFFFFFFFFFFFFFFFFFF99
:10572000FFFFFFFFFFFFFFFFFFFFFFFFFFFFFFFF89
:10573000FFFFFFFFFFFFDFFFFFFFFFFFFFFFDFFFB9
:10574000FFFFFFFFFFFFFFFFFFFFFFFFFFFFFFFF69
:10575000FFFFFFFFFFFFFFFFFFFFFFFFFFFFFFFF59
:10576000FFFFFFFFFFFFFFFFFFFFFFFFFFFFFFFF49
:10577000FFFFFFFFFFFFFFFFFFFFFFFFFFFFFFFF39
:10578000FFFFFFFFFFFFFFFFFFFFFFFFFFFFFFFF29
:10579000FFFFFFFFFFFFFFFFFFFFFFFFFFFFFFFF19
:1057A000FFFFFFFFFFFFFFFFFFFFFFFFFFFFFFFF09
:1057B000FFFFFFFFFFFFFFFFFFFFFFFFFFFFFFFFF9
:1057C000FFFFFFFFFFFFFFFFFFFFFFFFFFFFFFFFE9
:1057D000FFFFFFFFFFFFFFFFFFFFFFFFFFFFFFFFD9
:1057E000FFFFFFFFFFFFFFFFFFFFFFFFFFFFFFFFC9
:1057F000FFFFFFFFFFFFFFFFFFFFFFFFFFFFFFFFB9
:10580000FFFFFFFFFFFFFFFFFFFFFFFFFFFFFFFFA8
:10581000FFFFFFFFFFFFFFFFFFFFFFFFFFFFFFFF98
:10582000FFFFFFFFFFFFFFFFFFFFFFFFFFFFFFFF88
:10583000FFFFFFFFFFFFFFFFFFFFFFFFFFFFFFFF78
:10584000FFFFFFFFFFFFFFFFFFFFFFFFFFFFFFFF68
:10585000FFFFFFFFFFFFFFFFFFFFFFFFFFFFFFFF58
:10586000FFFFFFFFFFFFFFFFFFFFFFFFFFFFFFFF48
:10587000FFFFFFFFFFFFFFFFFFFFFFFFFFFFFFFF38
:10588000FFFFFFFFFFFFFFFFFFFFFFFFFFFFFFFF28
:10589000FFFFFFFFFFFFFFFFFFFFFFFFFFFFFFFF18
:1058A000FFFFDFFFFFFFFFFFFFFFFFFFFFFFFFFF28
:1058B000FFFFFFFFFFFFFFFFFFFFDFFFFFFFFFFF18
:1058C000FFFFDFFFFFFFFFFFFFFFFFFFFFFFFFFF08
:1058D000FFFFFFFFFFFFFFFFFFFFFFFFFFFFFFFFD8
:1058E000FFFFFFFFFFFFFFFFFFFFFFFFFFFFFFFFC8
:1058F000FFFFFFFFFFFFFFFFFFFFFFFFFFFFFFFFB8
:10590000FFFFFFFFFFFFFFFFFFFFFFFFFFFFFFFFA7
:10591000FFFFFFFFFFFFFFFFFFFFFFFFFFFFFFFF97
:10592000FFFFFFFFFFFFFFFFFFFFFFFFFFFFFFFF87
:10593000FFFFFFFFFFFFFFFFFFFFFFFFFFFFFFFF77
:10594000FFFFFFFFFFFFFFFFFFFFFFFFFFFFFFFF67
:10595000FFFFFFFFFFFFFFFFFFFFFFFFFFFFFFFF57
:10596000FFFFFFFFFFFFFFFFFFFFFFFFFFFFFFFF47
:10597000FFFFFFFFFFFFFFFFFFFFFFFFFFFFFFFF37
:10598000FFFFFFFFFFFFFFFFFFFFFFFFFFFFFFFF27
:10599000FFFFFFFFFFFFFFFFFFFFFFFFFFFFFFFF17
:1059A000FFFFFFFFFFFFFFFFFFFFFFFFFFFFFFFF07
:1059B000FFFFFFFFFFFFFFFFFFFFFFFFFFFFFFFFF7
:1059C000FFFFFFFFFFFFFFFFFFFFFFFFFFFFFFFFE7
:1059D000FFFFFFFFFFFFFFFFFFFFFFFFFFFFFFFFD7
:1059E000FFFFFFFFFFFFFFFFFFFFFFFFFFFFFFFFC7
:1059F000FFFFFFFFFFFFFFFFFFFFFFFFFFFFFFFFB7
:105A0000FFFFFFFFFFFFFFFFFFFFFFFFFFFFFFFFA6
:105A1000FFFFFFFFFFFFFFFFFFFFFFFFFFFFFFFF96
:105A2000FFFFFFFFFFFFFFFFFFFFFFFFFFFFFFFF86
:105A3000FFFFFFFFFFFFFFFFFFFFFFFFDFFFFFFF96
:105A4000FFFFFFFFDFFFFFFFFFFFFFFFFFFFDFFFA6
:105A5000FFFFFFFFFFFFFFFFFFFFDFFFFFFFFFFF76
:105A6000DFFFFFFFFFFFFFFFFFFFFFFFFFFFFFFF66
:105A7000FFFFFFFFFFFFFFFFFFFFFFFFFFFFFFFF36
:105A8000FFFFFFFFFFFFFFFFFFFFFFFFFFFFFFFF26
:105A9000FFFFFFFFFFFFFFFFFFFFFFFFFFFFFFFF16
:105AA000FFFFFFFFFFFFFFFFFFFFFFFFFFFFFFFF06
:105AB000FFFFFFFFFFFFFFFFFFFFFFFFFFFFFFFFF6
:105AC000FFFFFFFFFFFFFFFFFFFFFFFFFFFFFFFFE6
:105AD000FFFFFFFFFFFFFFFFFFFFFFFFFFFFFFFFD6
:105AE000FFFFFFFFFFFFFFFFFFFFFFFFFFFFFFFFC6
:105AF000FFFFFFFFFFFFFFFFFFFFFFFFFFFFFFFFB6
:105B0000FFFFFFFFFFFFFFFFFFFFFFFFFFFFFFFFA5
:105B1000FFFFFFFFFFFFFFFFFFFFFFFFFFFFFFFF95
:105B2000FFFFFFFFFFFFFFFFFFFFFFFFFFFFFFFF85
:105B3000FFFFFFFFFFFFFFFFFFFFFFFFFFFFFFFF75
:105B4000FFFFFFFFFFFFFFFFFFFFFFFFFFFFFFFF65
:105B5000FFFFFFFFFFFFFFFFFFFFFFFFFFFFFFFF55
:105B6000FFFFFFFFFFFFFFFFFFFFFFFFFFFFFFFF45
:105B7000FFFFFFFFFFFFFFFFFFFFFFFFFFFFFFFF35
:105B8000FFFFFFFFFFFFFFFFFFFFFFFFFFFFFFFF25
:105B9000FFFFFFFFFFFFFFFFFFFFFFFFFFFFFFFF15
:105BA000FFFFFFFFFFFFFFFFFFFFFFFFFFFFFFFF05
:105BB000FFFFFFFFFFFFFFFFFFFFFFFFFFFFFFFFF5
:105BC000FFFFFFFFFFFFDFFFDFFFFFFFFFFF9AD6B3
:105BD0000000000020000000FFFFFFFFFFFFFFFFAD
:105BE000FFFFFFFFAE73000000000000000014A5DF
:105BF000FFFFFFFFFFFFFFFFFFFFFFFFFFFFFFFFB5
:105C0000FFFFFFFFFFFFFFFFFFFFFFFFFFFFFFFFA4
:105C1000FFFFFFFFFFFFFFFFFFFFFFFFFFFFFFFF94
:105C2000FFFFFFFFFFFFFFFFFFFFFFFFFFFFFFFF84
:105C3000FFFFFFFFFFFFFFFFFFFFFFFFFFFFFFFF74
:105C4000FFFFFFFFFFFFFFFFFFFFFFFFFFFFFFFF64
:105C5000FFFFFFFFFFFFFFFFFFFFFFFFFFFFFFFF54
:105C6000FFFFFFFFFFFFFFFFFFFFFFFFFFFFFFFF44
:105C7000FFFFFFFFFFFFFFFFFFFFFFFFFFFFFFFF34
:105C8000FFFFFFFFFFFFFFFFFFFFFFFFFFFFFFFF24
:105C9000FFFFFFFFFFFFFFFFFFFFFFFFFFFFFFFF14
:105CA000FFFFFFFFFFFFFFFFFFFFFFFFFFFFFFFF04
:105CB000FFFFFFFFFFFFFFFFFFFFFFFFFFFFFFFFF4
:105CC000FFFFFFFFFFFFFFFFFFFFFFFFFFFFFFFFE4
:105CD000FFFFFFFFFFFFFFFFFFFFFFFFFFFFFFFFD4
:105CE000FFFFFFFFFFFFFFFFFFFFFFFFFFFFFFFFC4
:105CF000FFFFFFFFFFFFFFFFFFFFFFFFFFFFFFFFB4
:105D0000FFFFFFFFFFFFFFFFFFFFFFFFFFFFFFFFA3
:105D1000FFFFFFFFFFFFFFFFFFFFFFFFFFFFFFFF93
:105D2000FFFFFFFFFFFFFFFFFFFFFFFFFFFFFFFF83
:105D3000FFFFFFFFFFFFFFFFFFFFFFFFFFFFFFFF73
:105D4000FFFFFFFFFFFFFFFFFFFFFFFFFFFFFFFF63
